{
  "_format": "hh-sol-artifact-1",
  "contractName": "SkiverseGame",
  "sourceName": "contracts/SkiverseGame.sol",
  "abi": [
    {
      "inputs": [
        {
          "internalType": "address",
          "name": "_gameToken",
          "type": "address"
        }
      ],
      "stateMutability": "nonpayable",
      "type": "constructor"
    },
    {
      "inputs": [],
      "name": "getLeadersBoard",
      "outputs": [
        {
          "components": [
            {
              "internalType": "bytes",
              "name": "username",
              "type": "bytes"
            },
            {
              "internalType": "uint256",
              "name": "score",
              "type": "uint256"
            }
          ],
          "internalType": "struct SkiverseObjects.LeadersBoard[]",
          "name": "",
          "type": "tuple[]"
        }
      ],
      "stateMutability": "view",
      "type": "function"
    },
    {
      "inputs": [
        {
          "internalType": "uint256",
          "name": "id",
          "type": "uint256"
        }
      ],
      "name": "getPlayer",
      "outputs": [
        {
          "components": [
            {
              "internalType": "uint256",
              "name": "id",
              "type": "uint256"
            },
            {
              "internalType": "address",
              "name": "player",
              "type": "address"
            },
            {
              "internalType": "uint256",
              "name": "playerCrayonTokenBalance",
              "type": "uint256"
            }
          ],
          "internalType": "struct SkiverseObjects.Player",
          "name": "",
          "type": "tuple"
        }
      ],
      "stateMutability": "view",
      "type": "function"
    },
    {
      "inputs": [
        {
          "internalType": "uint256",
          "name": "id",
          "type": "uint256"
        },
        {
          "internalType": "address",
          "name": "smartAccount",
          "type": "address"
        }
      ],
      "name": "registerPlayer",
      "outputs": [],
      "stateMutability": "nonpayable",
      "type": "function"
    },
    {
      "inputs": [
        {
          "components": [
            {
              "internalType": "bytes",
              "name": "username",
              "type": "bytes"
            },
            {
              "internalType": "uint256",
              "name": "score",
              "type": "uint256"
            }
          ],
          "internalType": "struct SkiverseObjects.LeadersBoard[]",
          "name": "board",
          "type": "tuple[]"
        }
      ],
      "name": "setLeadersBoard",
      "outputs": [],
      "stateMutability": "nonpayable",
      "type": "function"
    }
  ],
  "bytecode": "0x608060405234801561001057600080fd5b50604051611258380380611258833981810160405281019061003291906100df565b80600060020160006101000a81548173ffffffffffffffffffffffffffffffffffffffff021916908373ffffffffffffffffffffffffffffffffffffffff1602179055505061010c565b600080fd5b600073ffffffffffffffffffffffffffffffffffffffff82169050919050565b60006100ac82610081565b9050919050565b6100bc816100a1565b81146100c757600080fd5b50565b6000815190506100d9816100b3565b92915050565b6000602082840312156100f5576100f461007c565b5b6000610103848285016100ca565b91505092915050565b61113d8061011b6000396000f3fe608060405234801561001057600080fd5b506004361061004c5760003560e01c8063039abae4146100515780637638a7981461006d5780639cc6175b14610089578063e55ae4e8146100a7575b600080fd5b61006b60048036038101906100669190610950565b6100d7565b005b610087600480360381019061008291906109f7565b6100e5565b005b6100916100f5565b60405161009e9190610bc4565b60405180910390f35b6100c160048036038101906100bc9190610be6565b610266565b6040516100ce9190610c64565b60405180910390f35b6100e260008261037f565b50565b6100f16000838361041d565b5050565b606060008060030180549050905060008167ffffffffffffffff81111561011f5761011e61068e565b5b60405190808252806020026020018201604052801561015857816020015b610145610563565b81526020019060019003908161013d5790505b50905060005b8281101561025d576000600301818154811061017d5761017c610c7f565b5b90600052602060002090600202016040518060400160405290816000820180546101a690610cdd565b80601f01602080910402602001604051908101604052809291908181526020018280546101d290610cdd565b801561021f5780601f106101f45761010080835404028352916020019161021f565b820191906000526020600020905b81548152906001019060200180831161020257829003601f168201915b5050505050815260200160018201548152505082828151811061024557610244610c7f565b5b6020026020010181905250808060010191505061015e565b50809250505090565b61026e61057d565b600080600001600084815260200190815260200160002060009054906101000a900473ffffffffffffffffffffffffffffffffffffffff16905060405180606001604052808481526020018273ffffffffffffffffffffffffffffffffffffffff168152602001600060020160009054906101000a900473ffffffffffffffffffffffffffffffffffffffff1673ffffffffffffffffffffffffffffffffffffffff166370a08231846040518263ffffffff1660e01b81526004016103339190610d1d565b602060405180830381865afa158015610350573d6000803e3d6000fd5b505050506040513d601f19601f820116820180604052508101906103749190610d4d565b815250915050919050565b81600301600061038f91906105b4565b60008151905060005b8181101561041757836003018382815181106103b7576103b6610c7f565b5b6020026020010151908060018154018082558091505060019003906000526020600020906002020160009091909190915060008201518160000190816103fd9190610f26565b506020820151816001015550508080600101915050610398565b50505050565b60008211610460576040517f08c379a000000000000000000000000000000000000000000000000000000000815260040161045790611055565b60405180910390fd5b600083600001600084815260200190815260200160002060009054906101000a900473ffffffffffffffffffffffffffffffffffffffff169050600073ffffffffffffffffffffffffffffffffffffffff168173ffffffffffffffffffffffffffffffffffffffff1614610509576040517f08c379a0000000000000000000000000000000000000000000000000000000008152600401610500906110e7565b60405180910390fd5b8184600001600085815260200190815260200160002060006101000a81548173ffffffffffffffffffffffffffffffffffffffff021916908373ffffffffffffffffffffffffffffffffffffffff16021790555050505050565b604051806040016040528060608152602001600081525090565b604051806060016040528060008152602001600073ffffffffffffffffffffffffffffffffffffffff168152602001600081525090565b50805460008255600202906000526020600020908101906105d591906105d8565b50565b5b8082111561060357600080820160006105f29190610607565b6001820160009055506002016105d9565b5090565b50805461061390610cdd565b6000825580601f106106255750610644565b601f0160209004906000526020600020908101906106439190610647565b5b50565b5b80821115610660576000816000905550600101610648565b5090565b6000604051905090565b600080fd5b600080fd5b600080fd5b6000601f19601f8301169050919050565b7f4e487b7100000000000000000000000000000000000000000000000000000000600052604160045260246000fd5b6106c68261067d565b810181811067ffffffffffffffff821117156106e5576106e461068e565b5b80604052505050565b60006106f8610664565b905061070482826106bd565b919050565b600067ffffffffffffffff8211156107245761072361068e565b5b602082029050602081019050919050565b600080fd5b600080fd5b600080fd5b600080fd5b600067ffffffffffffffff8211156107645761076361068e565b5b61076d8261067d565b9050602081019050919050565b82818337600083830152505050565b600061079c61079784610749565b6106ee565b9050828152602081018484840111156107b8576107b7610744565b5b6107c384828561077a565b509392505050565b600082601f8301126107e0576107df610678565b5b81356107f0848260208601610789565b91505092915050565b6000819050919050565b61080c816107f9565b811461081757600080fd5b50565b60008135905061082981610803565b92915050565b6000604082840312156108455761084461073a565b5b61084f60406106ee565b9050600082013567ffffffffffffffff81111561086f5761086e61073f565b5b61087b848285016107cb565b600083015250602061088f8482850161081a565b60208301525092915050565b60006108ae6108a984610709565b6106ee565b905080838252602082019050602084028301858111156108d1576108d0610735565b5b835b8181101561091857803567ffffffffffffffff8111156108f6576108f5610678565b5b808601610903898261082f565b855260208501945050506020810190506108d3565b5050509392505050565b600082601f83011261093757610936610678565b5b813561094784826020860161089b565b91505092915050565b6000602082840312156109665761096561066e565b5b600082013567ffffffffffffffff81111561098457610983610673565b5b61099084828501610922565b91505092915050565b600073ffffffffffffffffffffffffffffffffffffffff82169050919050565b60006109c482610999565b9050919050565b6109d4816109b9565b81146109df57600080fd5b50565b6000813590506109f1816109cb565b92915050565b60008060408385031215610a0e57610a0d61066e565b5b6000610a1c8582860161081a565b9250506020610a2d858286016109e2565b9150509250929050565b600081519050919050565b600082825260208201905092915050565b6000819050602082019050919050565b600081519050919050565b600082825260208201905092915050565b60005b83811015610a9d578082015181840152602081019050610a82565b60008484015250505050565b6000610ab482610a63565b610abe8185610a6e565b9350610ace818560208601610a7f565b610ad78161067d565b840191505092915050565b610aeb816107f9565b82525050565b60006040830160008301518482036000860152610b0e8282610aa9565b9150506020830151610b236020860182610ae2565b508091505092915050565b6000610b3a8383610af1565b905092915050565b6000602082019050919050565b6000610b5a82610a37565b610b648185610a42565b935083602082028501610b7685610a53565b8060005b85811015610bb25784840389528151610b938582610b2e565b9450610b9e83610b42565b925060208a01995050600181019050610b7a565b50829750879550505050505092915050565b60006020820190508181036000830152610bde8184610b4f565b905092915050565b600060208284031215610bfc57610bfb61066e565b5b6000610c0a8482850161081a565b91505092915050565b610c1c816109b9565b82525050565b606082016000820151610c386000850182610ae2565b506020820151610c4b6020850182610c13565b506040820151610c5e6040850182610ae2565b50505050565b6000606082019050610c796000830184610c22565b92915050565b7f4e487b7100000000000000000000000000000000000000000000000000000000600052603260045260246000fd5b7f4e487b7100000000000000000000000000000000000000000000000000000000600052602260045260246000fd5b60006002820490506001821680610cf557607f821691505b602082108103610d0857610d07610cae565b5b50919050565b610d17816109b9565b82525050565b6000602082019050610d326000830184610d0e565b92915050565b600081519050610d4781610803565b92915050565b600060208284031215610d6357610d6261066e565b5b6000610d7184828501610d38565b91505092915050565b60008190508160005260206000209050919050565b60006020601f8301049050919050565b600082821b905092915050565b600060088302610ddc7fffffffffffffffffffffffffffffffffffffffffffffffffffffffffffffffff82610d9f565b610de68683610d9f565b95508019841693508086168417925050509392505050565b6000819050919050565b6000610e23610e1e610e19846107f9565b610dfe565b6107f9565b9050919050565b6000819050919050565b610e3d83610e08565b610e51610e4982610e2a565b848454610dac565b825550505050565b600090565b610e66610e59565b610e71818484610e34565b505050565b5b81811015610e9557610e8a600082610e5e565b600181019050610e77565b5050565b601f821115610eda57610eab81610d7a565b610eb484610d8f565b81016020851015610ec3578190505b610ed7610ecf85610d8f565b830182610e76565b50505b505050565b600082821c905092915050565b6000610efd60001984600802610edf565b1980831691505092915050565b6000610f168383610eec565b9150826002028217905092915050565b610f2f82610a63565b67ffffffffffffffff811115610f4857610f4761068e565b5b610f528254610cdd565b610f5d828285610e99565b600060209050601f831160018114610f905760008415610f7e578287015190505b610f888582610f0a565b865550610ff0565b601f198416610f9e86610d7a565b60005b82811015610fc657848901518255600182019150602085019450602081019050610fa1565b86831015610fe35784890151610fdf601f891682610eec565b8355505b6001600288020188555050505b505050505050565b600082825260208201905092915050565b7f6964206d7573742062652067726561746572207468616e207a65726f00000000600082015250565b600061103f601c83610ff8565b915061104a82611009565b602082019050919050565b6000602082019050818103600083015261106e81611032565b9050919050565b7f696420686173206265656e2061737369676e656420746f20616e6f746865722060008201527f706c617965720000000000000000000000000000000000000000000000000000602082015250565b60006110d1602683610ff8565b91506110dc82611075565b604082019050919050565b60006020820190508181036000830152611100816110c4565b905091905056fea26469706673582212205edd667e81796cb5ddcd5b190efdcae804c7f89220dfd129c57eff9d1b4926ae64736f6c634300081c0033",
  "linkReferences": {},
  "deployedLinkReferences": {}
}